:020000040800F2
:1000000000200010AD1700088517000887170008AA
:10001000891700088B1700088D17000800000000E2
:100020000000000000000000000000008F17000822
:1000300091170008000000009317000895170008AA
:10004000D9170008DD170008E1170008E5170008B8
:10005000E9170008ED170008F1170008F517000868
:10006000F9170008FD170008011800080518000816
:10007000091800080D1800081118000815180008C4
:10008000191800081D180008211800082518000874
:10009000291800082D180008311800083518000824
:1000A000391800083D1800084118000845180008D4
:1000B000491800084D180008511800085518000884
:1000C000591800085D180008611800086518000834
:1000D000691800086D1800087118000875180008E4
:1000E000791800087D180008811800088518000894
:1000F000891800088D180008911800089518000844
:10010000991800089D180008A1180008A5180008F3
:10011000A9180008AD180008B1180008B5180008A3
:10012000B9180008BD180008C1180008C518000853
:10013000C9180008CD180008D1180008D518000803
:10014000D9180008DD180008E1180008E5180008B3
:10015000E9180008ED180008F1180008F518000863
:10016000F9180008FD180008011900080519000811
:10017000091900080D1900081119000800000000F5
:1001800015190008191900081D190008211900087F
:1001900025190008291900082D190008311900082F
:1001A00035190008391900083D190008F8B52DED7A
:1001B000068B41EC180B154653EC182BDFF898030F
:1001C000DFF8981300F012FA41EC190B21F000410E
:1001D000DFF88C23DFF88C3300F0DAFA6AD253ECC4
:1001E000192B9FEDB70B03F0004251EC100B0C469E
:1001F000144353EC102B51EC190B234600F0E0FA9A
:1002000000F09CFB040051D000F0B6FB0022D64B5E
:1002100000F0ECF941EC190B53EC192B4FF0A04016
:10022000D24900F0E3F902460B4651EC180B00F0FE
:10023000B5FB06460F4653EC192B4FF0C040CC4996
:1002400000F0D4F902460B463046394600F0A6FBD2
:1002500006460F4653EC192B4FF00050C54900F0ED
:10026000C5F902460B463046394600F097FB064674
:100270000F4653EC192B0020BF4900F0B7F9024696
:100280000B463046394600F089FB06460F4653ECD4
:10029000192B4FF00050B94900F0A8F902460B465F
:1002A0003046394600F07AFB41EC180B04F00304A9
:1002B0006519B7E051EC180B48004015401C51EC93
:1002C000180B0DD148004015401C02D1090340F025
:1002D0003D81BDEC068B4FF0FF306FF00041F4BD67
:1002E00031F0004108BF002805D1002D00F02E811B
:1002F0009FEDBB8B2AE153EC192B9FED710B03F0A3
:10030000004251EC100B0C46144353EC102B51ECF3
:10031000190B234600F054FA4B0043EAD073420015
:10032000002B08BF002A41EC190B19D040F23344CE
:10033000A4EB5352352A04DB00F0000001F0004129
:100340000CE0202A03DD203AD140914000E001D1A9
:10035000002003E0012AA4BFD040904041EC190BDB
:1003600051EC190B20F0000231F0004308BF002AC5
:1003700051D053EC192B00207B4900F037F941ECA8
:100380001A0B53EC1A2B4FF0A040784900F02EF9CD
:1003900002460B4651EC180B00F000FB06460F46D8
:1003A00053EC1A2B4FF0C040714900F01FF9024680
:1003B0000B463046394600F0F1FA04460E4653EC3F
:1003C0001A2B4FF000506B4900F010F902460B4613
:1003D0002046314600F0E2FA06460F4653EC1A2B4F
:1003E0000020654900F002F902460B4630463946C6
:1003F00000F0D4FA06460F4653EC1A2B4FF000508B
:100400005E4900F0F3F802460B463046394600F0EC
:10041000C5FA41EC180B51EC190B00F08FFA00F003
:100420000300451951EC180B21F0004100224FF058
:10043000795300F0ADF905F0010405D2002C00F06D
:100440007D809FED678B79E053EC182B51EC180BF6
:1004500000F0CCF8002C41EC190B35D053EC192BE3
:100460004748484900F0C2F8474A484B00F0A8F90D
:1004700053EC192B00F0BAF8454A464B00F0A0F9AE
:1004800053EC192B00F0B2F8434A444B00F098F9B2
:1004900053EC192B00F0AAF8414A424B00F090F9B6
:1004A00053EC192B00F0A2F86FF051023E4B00F014
:1004B00087F953EC192B00F099F800223B4B39E0F7
:1004C000000000000000E03F53EC182B00F08EF815
:1004D00006460F4653EC192B3548364900F086F88E
:1004E000354A364B00F06CF953EC192B00F07EF8CE
:1004F000334A344B00F064F953EC192B00F076F8D2
:10050000314A324B00F05CF953EC192B00F06EF8D5
:100510002F4A304B00F054F953EC192B00F066F8D9
:100520002D4A2E4B00F04CF932463B4600F05EF867
:1005300053EC182B00F044F941EC180BA80705D533
:1005400051EC180B81F0004141EC180B51EC180BE9
:10055000BDEC068BF4BD000083C8C96D305FE43F7D
:100560000000A0FFFFFFDF410000303EFB21B9414A
:10057000B410114026A6513E5C14D33C9A833B3BF9
:1005800009260A1039BA213E3BA861C6F97D92BE00
:1005900063AC30909F01FA3EF6FB51166CC156BF1A
:1005A000B10255555555A53FFFFFDFBF0000F03F95
:1005B000B08F2FC310D8E53D8F0C73A1E1E55ABE73
:1005C0004DADE44FE31DC73E3EE3B519A0012ABF80
:1005D000FAF010111111813F425555555555C5BFBF
:1005E000000000000000F03F0022DFE5B0B581EA26
:1005F000030C0CF0004C40F2FF7515EA11541DBFBE
:1006000015EA1357AC42AF4239E0E41923EA4553E7
:1006100043F48013C90241F0004141EA505EC70231
:100620001100A7FB020200284FF00000EEFB0120A2
:100630004FF00001E3FB072118BF42F00102401810
:1006400000214941E3FB0E01A4F580640F0302D2AF
:1006500052004041494154F101046CDD470872F1F8
:10066000004250F1000051EB0451A1F580115CBF34
:1006700041EA0C01B0BD4CEA05510020B0BD05EACD
:100680001357AC4214BFAF4241E050EA410E1CBFC9
:1006900052EA430E02E061460020B0BD24423C44D1
:1006A0001BD15FEA070EF6D0090302BF0146002006
:1006B000AEF1140EB1FA81F7AEEB070401FA07FEB2
:1006C0000C37C7F1200100FA07F7C8404EEA000EC8
:1006D00023EA455343F48013A2E733F00043B3FA0F
:1006E00083F704BFB2FA82FE77440B3FE41BB7F1F5
:1006F000200E2FBF02FA0EF3BB40C7F1200E22FAE4
:100700000EFE38BF43EA0E03BA40641C82E750EA8B
:10071000410E14BF52EA430E6FF000014FF4001770
:1007200017EB430F8ABF194617EB410FB5E74CEAA9
:1007300005510020B0BDD4F10104B4F120070FDA57
:10074000C4F12007520828BF42F0010210FA07F551
:1007500001FA07F7E1BF2A43E0403843E1400FE0E8
:10076000352C98DCC7F1200452EA400220FA07F247
:1007700018BF42F0010231FA07F0A1400A430021FC
:1007800072F1004250F1000051EB0C01B0BD0000CD
:100790004FF4001C1CEB410F94BF1CEB430F09E00E
:1007A00041EA030C50EA4C0C52EA0C0C03D2994279
:1007B00008BF9042704714BF8B42824270470000CE
:1007C00070B44FF0004591EA030F40F1EF806B40A9
:1007D000841A71EB030604D26E40001BB14112195A
:1007E00073414FF4001C1CEB410F34BF7CEB4306FC
:1007F00083E00C0DA4EB1356362E00F37C80012E03
:1008000045EAC32341DC43EA525312BFD2029202AB
:100810005B08240545EAC12141EA5051D2EBC020D2
:10082000994125D407D1B0FA80F610FA06F162D0CA
:100830000020203608E0B1FA81F6B140C6F120026E
:1008400020FA02F21143B0404FEAF474B4EB46547C
:1008500034F001064FEA74040AD8D6F50016760D76
:1008600004F00044F04061FA06F25040F140484084
:10087000C00A40EA415021F0004128BF5FEA50051C
:1008800050F1000044EBD12135E0DB0A45EAC121FB
:10089000C90AB6F120050EDD42EA0242120CC5F18A
:1008A000200603FA06F6EB4042EA06056D4298413F
:1008B00061F100010DE062FA06F5F240554063FA7D
:1008C00006FC82EA0C02F3405A406D42904161EB13
:1008D000030111F4801F05D1641E620502D06D0072
:1008E0004041494121F48011430875F1004350F122
:1008F000000041EB045170BC70471CEB410F15D256
:1009000023F0004352EA43060BD04FEA4C0CBCEBF9
:10091000410F04D80C0D661E342EB7DDEBE7801AAC
:10092000994150EA410608BF0021E4E708BF1CEBEB
:10093000430F28BF6FF00001DDE70000C1F30A5349
:1009400040F2FE329B1A14DDD3F120034FEAE1722C
:1009500008DDC90241EA505141F00040D8408018FA
:100960005040704703F2E13010B1D24382F00040B2
:100970007047002070470000C11768B14840401A16
:10098000B0FA80F29040D21CC907C2F5846241EAF5
:10099000025202EBD02140057047000070B44FF0C6
:1009A000004591EA030F7FF513AF6B40841A71EB9A
:1009B000030603D2001BB141121973414FF4001C0E
:1009C0001CEB410F34BF7CEB430442E00C0DA4EB65
:1009D0001356352E4FDC45EAC323DB0A45EAC12115
:1009E000C912B6F120050DDD63FA05F6EB4086EA83
:1009F0000305124218BF45F00105C01851F100016E
:100A00000CD213E062FA06F5F2405540F3415A4029
:100A1000B340F3405A408018594107D349085FEA70
:100A200030005FEA350528BF45F0010501F580116A
:100A3000420875F1004250F1000041EB04514E00B4
:100A400016F5001F70BC38BF70470020090D09055E
:100A500070471CEB410F10D252EA43060BD0BCEB9F
:100A6000410F05D80C0DAB43661E342EB6DD02E0F7
:100A7000AB438018594170BC704770BC7047000090
:100A80002DE9FC410400002C01D10120C4E12078B3
:100A9000C0075FD5DFF88403016811F00C01042959
:100AA00009D0006810F00C0008280ED1DFF87003A0
:100AB0000068400209D5DFF86C030068800349D55F
:100AC0006068002846D10120A6E16068B0F5803F4B
:100AD00006D1DFF85003016851F48031016018E05D
:100AE0006068B0F5A02F0AD1DFF83803016851F42F
:100AF00080210160016851F48031016009E0DFF874
:100B00002403016831F480310160016831F48021EF
:100B10000160606800280ED000F094F90500DFF84D
:100B200004030068800315D400F08CF9401B65288D
:100B3000F5D3032070E100F085F90500DFF8E40249
:100B40000068800306D500F07DF9401B6528F5D3C9
:100B5000032061E1207880071DD5B048016811F0BD
:100B60000C0F08D0006810F00C0008282AD1AC48FF
:100B70000068400226D4AB480168890704D5E168C3
:100B8000012901D0012047E1016831F0F801226913
:100B900051EAC20101602078000751D56069002840
:100BA0003DD00120A049086000F04CF905009F48A5
:100BB0000068800744D400F045F9401B0328F6D3B1
:100BC000032029E1E068002818D001209849086036
:100BD00000F038F9050093480168890706D400F051
:100BE00031F9401B0328F6D3032015E1016831F0E9
:100BF000F801226951EAC2010160CCE700208C496A
:100C0000086000F01FF90500864800688007C2D51B
:100C100000F018F9401B0328F6D30320FCE0002065
:100C20008149086000F00EF90500804800688007DF
:100C300006D500F007F9401B0328F6D30320EBE0AC
:100C4000207840076FD500267A4D2868C0000BD465
:100C500000200090286850F080502860286810F02C
:100C60008050009000980126734F3868C00511D459
:100C7000386850F48070386000F0E4F880463868D6
:100C8000C00507D400F0DEF8B0EB08000328F6D367
:100C90000320C1E0A068012805D16848016851F02F
:100CA0000101016015E0A068052809D163480168C9
:100CB00051F004010160016851F00101016008E098
:100CC0005E480168490849000160016831F004018B
:100CD0000160A06800280FD000F0B4F80700574862
:100CE0000068800718D400F0ADF8C01B41F28931CC
:100CF0008842F4D303208FE000F0A4F807004F48A7
:100D00000068800708D500F09DF8C01B41F28931CA
:100D10008842F4D303207FE0F6B2012E03D1286885
:100D200030F080502860A069002874D03B480068EB
:100D300010F00C00082843D0A06902282FD1404EA3
:100D40000020306000F07EF80700364D28688001F2
:100D500006D500F077F8C01B0328F6D303205BE02C
:100D6000E169206A0143606A51EA8011A06A400883
:100D7000401E51EA0041E06A51EA006128480160E2
:100D80000120306000F05EF804002868800142D441
:100D900000F058F8001B0328F7D303203CE00020A4
:100DA0002749086000F04EF804001E4800688001E2
:100DB00031D500F047F8001B0328F6D303202BE0C1
:100DC000A069012801D1012026E015480068A16929
:100DD00001291ED010F48001E269914219D110F06E
:100DE0003F01226A914214D147F6C0710140626A04
:100DF000B1EB821F0DD110F44031A26A5208521E8D
:100E0000B1EB024F05D110F07060E16AB0EB016FF9
:100E100001D0012000E00020BDE8F6810838024042
:100E20000438024000380240800E474274380240C5
:100E300000004742403802400070004070380240D5
:100E40006000474201480068704700BF080000206A
:100E5000BBBBE1B1B2F5803F80F07E80022A1ED993
:100E60008C46B1FBF2F102FB11C31B0443EA1043B1
:100E7000B3FBF2FC02FB1C3380B240EA0343B3FB3A
:100E8000F2F002FB103240EA0C4000237047022AC5
:100E900005D98446B0FBF2F002FB10C270474AB19C
:100EA00005D100F0010249085FEA300070470022D6
:100EB0000023704700F0E4B80B000200002100207E
:100EC0007047904271EB030CF6D3B3F5803F2FD2FD
:100ED000F0B5B3FA83F7B1FA81F4A7F10F0E3D1B19
:100EE0005340CEF1200602FA0EF2F3415340B5F121
:100EF0000F0746D80F3C2C444140C4F12006A040C7
:100F0000F1414140B1FBF3F603FB1611A2FB06458C
:100F1000001BA94102D2761E8018594180EA0102C5
:100F200021FA0EF362FA0EF200215A403046F0BD6B
:100F300030B4B1FBF3FC03FB1C11A2FB0C45001BFE
:100F4000A94103D2ACF1010C8018594130BC0246D2
:100F50000B46604600217047B2F1807F65D3F0B543
:100F6000B2FA82F7B1FA81F4C7F10F063D1B22FAFB
:100F700006F307F1110EF24120355A40B5F10F0783
:100F8000B8D94140C4F12006A040F1414140B1FB35
:100F9000F3FC03FB1C11A2FB0C45001BA94103D26F
:100FA000BCF1010C801859410F2F12D30F3FC90318
:100FB00041EA5041B1FBF3F603FB1611A2FB0645D3
:100FC000D4EBC030A94102D2761E8018594146EABE
:100FD000CC3C07B34140C7F12006B840F141414045
:100FE000B1FBF3F603FB1611A2FB0645001BA9415A
:100FF00002D2761E8018594180EA010221FA0EF3CE
:10100000C7F1200462FA0EF20CFA07F05A402CFAEB
:1010100004F13043F0BD80EA010221FA0EF3002111
:1010200062FA0EF260465A40F0BD8C46B1FBF2F116
:1010300002FB11C31B0243EA1063B3FBF2FC02FB89
:101040001C331B024CEA002043EA1063B3FBF2FCA2
:1010500002FB1C331B024CEA002043EA1063B3FB83
:10106000F2FC02FB1C331B024CEA002043EA106333
:10107000B3FBF2FC02FB1C324CEA00200023704759
:10108000704700002DE9F04104000E00002C01D152
:10109000012092E04A4D286810F00F00B04207D2BC
:1010A0002E70286810F00F00B04201D0012084E0BB
:1010B0002078800716D52078400704D5414801687C
:1010C00051F4E05101602078000704D53D480168E3
:1010D00051F4604101603B490A6832F0F002A068B7
:1010E00002430A602078C00735D56068012805D121
:1010F00035480068800313D401205EE06068022850
:1011000002D06068032805D12F480068800107D409
:10111000012052E02C480068800701D401204CE0F7
:10112000284F396889088900606801433960FFF7F2
:1011300089FE8046386810F00C006168B0EB810FC2
:1011400009D0FFF77FFEB0EB080041F289318842F9
:10115000F0D3032031E0286810F00F00864207D258
:101160002E70286810F00F00B04201D0012024E05A
:101170002078400706D513490A6832F4E052E06847
:1011800002430A602078000707D50E48016831F451
:101190006041226951EAC201016000F01DF80B496B
:1011A000084A1268C2F30312895CC8400849086003
:1011B0000848006800F050F80020BDE8F081000009
:1011C000003C024008380240003802409C170008EA
:1011D000040000200000002010B5002000200020A6
:1011E00000201948006810F00C00002804D00428E2
:1011F00004D0082804D025E0144824E0144822E054
:10120000144C226812F03F022068400209D5206881
:10121000C0F388100E49A1FB00010023FFF718FE60
:1012200008E02068C0F388100849A1FB00010023F2
:10123000FFF70EFE2168C1F30141491C4900B0FBD4
:10124000F1F000E0014810BD083802400024F4002D
:1012500040787D010438024010B504004FF47A70E4
:101260000D490978B0FBF1F00C490968B1FBF0F0C9
:1012700000F086F8002801D001200CE0102C09D2E3
:10128000002221005FF0FF3000F069F8044804609C
:10129000002000E0012010BD0C0000200400002010
:1012A0000000002010F00700374B1A684FF6FF01CE
:1012B0000A40364951EA00210A431A607047324811
:1012C0000068C0F302207047020052B2002A04D422
:1012D00009012F4A40B2115407E009012D4A40B2DA
:1012E00010F00F00104400F8041C704710B410F008
:1012F0000700D0F10703052B01D3042301E0D0F14F
:101300000703041D072C01D2002000E0C01E0124A9
:1013100014FA03F35B1E1940814014FA00F0401EDA
:101320001040084310BC704780B5411EB1F1807F6A
:1013300001D301200EE0401E174908600F215FF025
:10134000FF30FFF7C1FF002014490860072014494F
:101350000860002002BD80B5FFF7A4FF01BD70B595
:1013600004000D0016000020FFF7A9FF320029003D
:10137000FFF7BCFF0100200040B2FFF7A5FF70BDE2
:1013800080B5FFF7D1FF02BD0CED00E00000FA05CB
:1013900000E400E018ED00E014E000E018E000E0F8
:1013A00010E000E080B59FED350B00F072F851ECD5
:1013B000100B00F075F800EE100A00F0A5F800F030
:1013C00003F800F0BBF8FEE780B592B006A8302124
:1013D00000F0E6F801A8142100F0E2F800200090E7
:1013E0002548016851F080510160006810F080507C
:1013F00000900098002000902248016851F440417C
:101400000160006810F440400090009801200690B0
:101410005FF48030079002200C905FF480000D9004
:101420000F200E90D8200F900220109004201190D1
:1014300006A8FFF725FB002801D000F025F800F0F2
:10144000B3F8002801D000F01FF80F20019002200F
:101450000290002003904FF4A05004904FF480506D
:101460000590052101A8FFF70DFE002801D000F02E
:101470000BF813B000BD000040380240000000002F
:1014800000004E400070004072B6FEE741EC100BC9
:1014900001BD80B551EC100BFFF7A6F8F6E7000090
:1014A00001F000428B1AA3F16051B1F5801F0ADBF5
:1014B000B1F17F6F1FD242EAC102C10071F1004158
:1014C00042EB507070470B15C3F10903212B10D26A
:1014D000890241EA905180020128494141F00041CE
:1014E00021FA03F0C3F12003994071F1004150410A
:1014F0007047100070476FF0000013EB103F5CBFA7
:10150000000E42EAC050704780B50B48016851F4A4
:1015100000710160016851F480610160016851F45B
:10152000807101600320FFF716FF0F20FFF794FE84
:1015300000F078F8002002BD003C024081B000209D
:1015400000901648016851F004010160016811F033
:1015500004010091009900210091016851F080017F
:101560000160016811F08001009100990021009153
:10157000016851F001010160016811F00101009161
:10158000009900210091016851F00201016000689A
:1015900010F002000090009801B07047303802400F
:1015A000002200F05FB8000038B500200020009055
:1015B0001948016851F080510160006810F08050B6
:1015C00000900098012015490860FFF73BFC0500DA
:1015D000104C2068C00308D4FFF734FC401B40F2D5
:1015E000E9318842F4D3032012E001200C4908605D
:1015F000FFF728FC05002068800308D4FFF722FCD1
:10160000401B40F2E9318842F5D3032000E000207E
:1016100032BD0000047000404038024040000E42DD
:1016200044000E4281B0002000900C48016851F443
:1016300080410160006810F4804000900098002014
:1016400000900748016851F080510160006810F077
:1016500080500090009801B0704700BF44380240AD
:101660004038024000B500BF13009646944610393A
:1016700028BFA0E80C50FAD85FEA417C28BF0CC014
:1016800048BF40F8042BC90728BF20F8022B48BFE9
:1016900000F8012B00BD30B450F8041B79B102688A
:1016A000436802440830DC0744BFA9F10104E31891
:1016B00052F8045B43F8045B091FF9D1ECE730BC36
:1016C0007047000010B5074979441831064C7C4436
:1016D000163404E00A68081D114488470146A142F7
:1016E000F8D110BD2C0000003C0000004EF68851DF
:1016F000CEF20001086840F470000860BFF34F8F1D
:10170000BFF36F8F4FF00070E1EE100A70470000DA
:1017100087FFFFFF100000002802000000000020EB
:101720000000000000F00DF8002801D0FFF7CAFF0C
:10173000AFF300800020AFF30080FFF733FE00F02E
:1017400002F80120704700F001B800000746384653
:1017500000F002F8FBE7000080B5AFF30080024A1A
:1017600011001820ABBEFBE7260002000348016809
:10177000034A127889180160704700BF08000020F2
:101780000C000020FEE7FEE7FEE7FEE7FEE77047FD
:101790007047704780B5FFF7E9FF01BD000000000A
:1017A0000000000001020304060708090148804701
:1017B00001480047BD170008CD170008024801681E
:1017C00051F470010160704788ED00E0AFF30080D4
:1017D000FFF78CFFFFF7A6FFFFF7FEBFFFF7FEBF87
:1017E000FFF7FEBFFFF7FEBFFFF7FEBFFFF7FEBF2D
:1017F000FFF7FEBFFFF7FEBFFFF7FEBFFFF7FEBF1D
:10180000FFF7FEBFFFF7FEBFFFF7FEBFFFF7FEBF0C
:10181000FFF7FEBFFFF7FEBFFFF7FEBFFFF7FEBFFC
:10182000FFF7FEBFFFF7FEBFFFF7FEBFFFF7FEBFEC
:10183000FFF7FEBFFFF7FEBFFFF7FEBFFFF7FEBFDC
:10184000FFF7FEBFFFF7FEBFFFF7FEBFFFF7FEBFCC
:10185000FFF7FEBFFFF7FEBFFFF7FEBFFFF7FEBFBC
:10186000FFF7FEBFFFF7FEBFFFF7FEBFFFF7FEBFAC
:10187000FFF7FEBFFFF7FEBFFFF7FEBFFFF7FEBF9C
:10188000FFF7FEBFFFF7FEBFFFF7FEBFFFF7FEBF8C
:10189000FFF7FEBFFFF7FEBFFFF7FEBFFFF7FEBF7C
:1018A000FFF7FEBFFFF7FEBFFFF7FEBFFFF7FEBF6C
:1018B000FFF7FEBFFFF7FEBFFFF7FEBFFFF7FEBF5C
:1018C000FFF7FEBFFFF7FEBFFFF7FEBFFFF7FEBF4C
:1018D000FFF7FEBFFFF7FEBFFFF7FEBFFFF7FEBF3C
:1018E000FFF7FEBFFFF7FEBFFFF7FEBFFFF7FEBF2C
:1018F000FFF7FEBFFFF7FEBFFFF7FEBFFFF7FEBF1C
:10190000FFF7FEBFFFF7FEBFFFF7FEBFFFF7FEBF0B
:10191000FFF7FEBFFFF7FEBFFFF7FEBFFFF7FEBFFB
:10192000FFF7FEBFFFF7FEBFFFF7FEBFFFF7FEBFEB
:10193000FFF7FEBFFFF7FEBFFFF7FEBFFFF7FEBFDB
:10194000100000000024F40000000000010000006E
:04000005080017CD0B
:00000001FF
