:020000040800F2
:1000000000200010410E0008190E00081B0E000809
:100010001D0E00081F0E0008210E00080000000041
:10002000000000000000000000000000230E000897
:10003000250E000800000000270E0008290E000809
:100040006D0E0008710E0008750E0008790E00088C
:100050007D0E0008810E0008850E0008890E00083C
:100060008D0E0008910E0008950E0008990E0008EC
:100070009D0E0008A10E0008A50E0008A90E00089C
:10008000AD0E0008B10E0008B50E0008B90E00084C
:10009000BD0E0008C10E0008C50E0008C90E0008FC
:1000A000CD0E0008D10E0008D50E0008D90E0008AC
:1000B000DD0E0008E10E0008E50E0008E90E00085C
:1000C000ED0E0008F10E0008F50E0008F90E00080C
:1000D000FD0E0008010F0008050F0008090F0008B9
:1000E0000D0F0008110F0008150F0008190F000868
:1000F0001D0F0008210F0008250F0008290F000818
:100100002D0F0008310F0008350F0008390F0008C7
:100110003D0F0008410F0008450F0008490F000877
:100120004D0F0008510F0008550F0008590F000827
:100130005D0F0008610F0008650F0008690F0008D7
:100140006D0F0008710F0008750F0008790F000887
:100150007D0F0008810F0008850F0008890F000837
:100160008D0F0008910F0008950F0008990F0008E7
:100170009D0F0008A10F0008A50F00080000000057
:10018000A90F0008AD0F0008B10F0008B50F000857
:10019000B90F0008BD0F0008C10F0008C50F000807
:1001A000C90F0008CD0F0008D10F00082DE9FC4150
:1001B0000400002C01D10120C4E12078C0075FD5E4
:1001C000DFF88403016811F00C01042909D00068EC
:1001D00010F00C0008280ED1DFF870030068400210
:1001E00009D5DFF86C030068800349D560680028F2
:1001F00046D10120A6E16068B0F5803F06D1DFF866
:100200005003016851F48031016018E06068B0F576
:10021000A02F0AD1DFF83803016851F48021016072
:10022000016851F48031016009E0DFF824030168BE
:1002300031F480310160016831F48021016060682F
:1002400000280ED000F094F90500DFF804030068E0
:10025000800315D400F08CF9401B6528F5D30320EA
:1002600070E100F085F90500DFF8E4020068800322
:1002700006D500F07DF9401B6528F5D3032061E128
:10028000207880071DD5B048016811F00C0F08D008
:10029000006810F00C0008282AD1AC480068400221
:1002A00026D4AB480168890704D5E168012901D04B
:1002B000012047E1016831F0F801226951EAC201E9
:1002C00001602078000751D5606900283DD00120E9
:1002D000A049086000F04CF905009F4800688007BD
:1002E00044D400F045F9401B0328F6D3032029E14C
:1002F000E068002818D001209849086000F038F91B
:10030000050093480168890706D400F031F9401BC5
:100310000328F6D3032015E1016831F0F8012269C2
:1003200051EAC2010160CCE700208C49086000F06E
:100330001FF90500864800688007C2D500F018F94B
:10034000401B0328F6D30320FCE00020814908600D
:1003500000F00EF9050080480068800706D500F01F
:1003600007F9401B0328F6D30320EBE02078400771
:100370006FD500267A4D2868C0000BD4002000906D
:10038000286850F080502860286810F08050009055
:1003900000980126734F3868C00511D4386850F4AE
:1003A0008070386000F0E4F880463868C00507D4F3
:1003B00000F0DEF8B0EB08000328F6D30320C1E01C
:1003C000A068012805D16848016851F00101016069
:1003D00015E0A068052809D16348016851F00401BF
:1003E0000160016851F00101016008E05E480168A8
:1003F000490849000160016831F004010160A0680A
:1004000000280FD000F0B4F80700574800688007B4
:1004100018D400F0ADF8C01B41F289318842F4D302
:1004200003208FE000F0A4F807004F480068800721
:1004300008D500F09DF8C01B41F289318842F4D301
:1004400003207FE0F6B2012E03D1286830F08050FF
:100450002860A069002874D03B48006810F00C00A8
:10046000082843D0A06902282FD1404E00203060D8
:1004700000F07EF80700364D2868800106D500F0B0
:1004800077F8C01B0328F6D303205BE0E169206AFC
:100490000143606A51EA8011A06A4008401E51EA97
:1004A0000041E06A51EA00612848016001203060A3
:1004B00000F05EF804002868800142D400F058F88B
:1004C000001B0328F7D303203CE0002027490860E5
:1004D00000F04EF804001E480068800131D500F09D
:1004E00047F8001B0328F6D303202BE0A06901285E
:1004F00001D1012026E015480068A16901291ED01C
:1005000010F48001E269914219D110F03F01226A92
:10051000914214D147F6C0710140626AB1EB821F6B
:100520000DD110F44031A26A5208521EB1EB024FB5
:1005300005D110F07060E16AB0EB016F01D00120CD
:1005400000E00020BDE8F68108380240043802408F
:1005500000380240800E4742743802400000474293
:10056000403802400070004070380240600047424E
:1005700001480068704700BF08000020BBBBE1B124
:10058000B2F5803F80F07E80022A1ED98C46B1FBF6
:10059000F2F102FB11C31B0443EA1043B3FBF2FC6C
:1005A00002FB1C3380B240EA0343B3FBF2F002FBD0
:1005B000103240EA0C4000237047022A05D98446D5
:1005C000B0FBF2F002FB10C270474AB105D100F057
:1005D000010249085FEA300070470022002370479B
:1005E00000F0E4B80B0002000021002070479042A8
:1005F00071EB030CF6D3B3F5803F2FD2F0B5B3FA0D
:1006000083F7B1FA81F4A7F10F0E3D1B5340CEF1F1
:10061000200602FA0EF2F3415340B5F10F0746D817
:100620000F3C2C444140C4F12006A040F141414020
:10063000B1FBF3F603FB1611A2FB0645001BA94113
:1006400002D2761E8018594180EA010221FA0EF387
:1006500062FA0EF200215A403046F0BD30B4B1FBD0
:10066000F3FC03FB1C11A2FB0C45001BA94103D2A8
:10067000ACF1010C8018594130BC02460B46604673
:1006800000217047B2F1807F65D3F0B5B2FA82F7EE
:10069000B1FA81F4C7F10F063D1B22FA06F307F108
:1006A000110EF24120355A40B5F10F07B8D941403B
:1006B000C4F12006A040F1414140B1FBF3FC03FB33
:1006C0001C11A2FB0C45001BA94103D2BCF1010C7B
:1006D000801859410F2F12D30F3FC90341EA5041EF
:1006E000B1FBF3F603FB1611A2FB0645D4EBC030B9
:1006F000A94102D2761E8018594146EACC3C07B384
:100700004140C7F12006B840F1414140B1FBF3F64A
:1007100003FB1611A2FB0645001BA94102D2761E5F
:100720008018594180EA010221FA0EF3C7F1200432
:1007300062FA0EF20CFA07F05A402CFA04F1304338
:10074000F0BD80EA010221FA0EF3002162FA0EF2F6
:1007500060465A40F0BD8C46B1FBF2F102FB11C37A
:100760001B0243EA1063B3FBF2FC02FB1C331B02C7
:100770004CEA002043EA1063B3FBF2FC02FB1C339B
:100780001B024CEA002043EA1063B3FBF2FC02FBBD
:100790001C331B024CEA002043EA1063B3FBF2FC5B
:1007A00002FB1C324CEA0020002370477047000017
:1007B0002DE9F04104000E00002C01D1012092E04F
:1007C0004A4D286810F00F00B04207D22E702868FA
:1007D00010F00F00B04201D0012084E020788007A3
:1007E00016D52078400704D54148016851F4E051FE
:1007F00001602078000704D53D48016851F460414C
:1008000001603B490A6832F0F002A06802430A60C6
:100810002078C00735D56068012805D135480068C3
:10082000800313D401205EE06068022802D0606873
:10083000032805D12F480068800107D4012052E029
:100840002C480068800701D401204CE0284F39680B
:1008500089088900606801433960FFF789FE804696
:10086000386810F00C006168B0EB810F09D0FFF719
:100870007FFEB0EB080041F289318842F0D30320BB
:1008800031E0286810F00F00864207D22E702868E9
:1008900010F00F00B04201D0012024E02078400782
:1008A00006D513490A6832F4E052E06802430A6050
:1008B0002078000707D50E48016831F460412269AD
:1008C00051EAC201016000F01DF80B49084A1268A4
:1008D000C2F30312895CC8400849086008480068F0
:1008E00000F050F80020BDE8F0810000003C02401C
:1008F0000838024000380240300E00080400002092
:100900000000002010B50020002000200020194821
:10091000006810F00C00002804D0042804D0082837
:1009200004D025E0144824E0144822E0144C226846
:1009300012F03F022068400209D52068C0F38810F9
:100940000E49A1FB00010023FFF718FE08E0206814
:10095000C0F388100849A1FB00010023FFF70EFE39
:100960002168C1F30141491C4900B0FBF1F000E0EE
:10097000014810BD083802400024F40040787D0191
:100980000438024010B504004FF47A700D4909781C
:10099000B0FBF1F00C490968B1FBF0F000F086F80B
:1009A000002801D001200CE0102C09D200222100E7
:1009B0005FF0FF3000F069F804480460002000E0B8
:1009C000012010BD0C0000200400002000000020C9
:1009D00010F00700374B1A684FF6FF010A403649FE
:1009E00051EA00210A431A60704732480068C0F398
:1009F00002207047020052B2002A04D409012F4A93
:100A000040B2115407E009012D4A40B210F00F0026
:100A1000104400F8041C704710B410F00700D0F127
:100A20000703052B01D3042301E0D0F10703041DC4
:100A3000072C01D2002000E0C01E012414FA03F3A9
:100A40005B1E1940814014FA00F0401E104008431C
:100A500010BC704780B5411EB1F1807F01D30120E9
:100A60000EE0401E174908600F215FF0FF30FFF7CE
:100A7000C1FF0020144908600720144908600020C5
:100A800002BD80B5FFF7A4FF01BD70B504000D00E5
:100A900016000020FFF7A9FF32002900FFF7BCFF76
:100AA0000100200040B2FFF7A5FF70BD80B5FFF741
:100AB000D1FF02BD0CED00E00000FA0500E400E00B
:100AC00018ED00E014E000E018E000E010E000E0C5
:100AD00080B500F063F800F003F800F079F8FEE765
:100AE00080B592B006A8302100F0A4F801A8142126
:100AF00000F0A0F8002000902548016851F08051D6
:100B00000160006810F08050009000980020009074
:100B10002048016851F440410160006810F44040F1
:100B200000900098012006905FF48030079002202A
:100B30000C905FF480000D900F200E90D8200F9045
:100B4000022010900420119006A8FFF72FFB002828
:100B500001D000F021F800F071F8002801D000F079
:100B60001BF80F20019002200290002003904FF408
:100B7000A05004904FF480500590052101A8FFF784
:100B800017FE002801D000F007F813B000BD0000E8
:100B9000403802400070004072B6FEE780B50B4856
:100BA000016851F400710160016851F480610160D5
:100BB000016851F4807101600320FFF762FF0F208C
:100BC000FFF7E0FE00F078F8002002BD003C024094
:100BD00081B0002000901648016851F004010160C6
:100BE000016811F004010091009900210091016851
:100BF00051F080010160016811F0800100910099BD
:100C000000210091016851F001010160016811F0BB
:100C100001010091009900210091016851F0020149
:100C20000160006810F002000090009801B0704769
:100C300030380240002200F05FB8000038B50020D4
:100C4000002000901948016851F08051016000684F
:100C500010F0805000900098012015490860FFF7BF
:100C600087FC0500104C2068C00308D4FFF780FC07
:100C7000401B40F2E9318842F4D3032012E0012006
:100C80000C490860FFF774FC05002068800308D455
:100C9000FFF76EFC401B40F2E9318842F5D3032098
:100CA00000E0002032BD00000470004040380240E7
:100CB00040000E4244000E4281B0002000900C48DB
:100CC000016851F480410160006810F48040009098
:100CD0000098002000900748016851F080510160A1
:100CE000006810F080500090009801B0704700BF7D
:100CF000443802404038024000B500BF1300964619
:100D00009446103928BFA0E80C50FAD85FEA417C1D
:100D100028BF0CC048BF40F8042BC90728BF20F8E3
:100D2000022B48BF00F8012B00BD30B450F8041B63
:100D300079B10268436802440830DC0744BFA9F176
:100D40000104E31852F8045B43F8045B091FF9D16E
:100D5000ECE730BC7047000010B507497944183102
:100D6000064C7C44163404E00A68081D1144884788
:100D70000146A142F8D110BD2C0000003C0000004B
:100D80004EF68851CEF20001086840F47000086009
:100D9000BFF34F8FBFF36F8F4FF00070E1EE100A7B
:100DA0007047000087FFFFFF1000000028020000CE
:100DB000000000200000000000F00DF8002801D025
:100DC000FFF7CAFFAFF300800020AFF30080FFF70A
:100DD0007FFE00F002F80120704700F001B800002B
:100DE0000746384600F002F8FBE7000080B5AFF395
:100DF0000080024A11001820ABBEFBE7260002006B
:100E000003480168034A127889180160704700BFDF
:100E1000080000200C000020FEE7FEE7FEE7FEE7EA
:100E2000FEE770477047704780B5FFF7E9FF01BDE7
:100E3000000000000000000001020304060708098A
:100E40000148804701480047510E0008610E000824
:100E50000248016851F470010160704788ED00E0BC
:100E6000AFF30080FFF78CFFFFF7A6FFFFF7FEBF91
:100E7000FFF7FEBFFFF7FEBFFFF7FEBFFFF7FEBFA6
:100E8000FFF7FEBFFFF7FEBFFFF7FEBFFFF7FEBF96
:100E9000FFF7FEBFFFF7FEBFFFF7FEBFFFF7FEBF86
:100EA000FFF7FEBFFFF7FEBFFFF7FEBFFFF7FEBF76
:100EB000FFF7FEBFFFF7FEBFFFF7FEBFFFF7FEBF66
:100EC000FFF7FEBFFFF7FEBFFFF7FEBFFFF7FEBF56
:100ED000FFF7FEBFFFF7FEBFFFF7FEBFFFF7FEBF46
:100EE000FFF7FEBFFFF7FEBFFFF7FEBFFFF7FEBF36
:100EF000FFF7FEBFFFF7FEBFFFF7FEBFFFF7FEBF26
:100F0000FFF7FEBFFFF7FEBFFFF7FEBFFFF7FEBF15
:100F1000FFF7FEBFFFF7FEBFFFF7FEBFFFF7FEBF05
:100F2000FFF7FEBFFFF7FEBFFFF7FEBFFFF7FEBFF5
:100F3000FFF7FEBFFFF7FEBFFFF7FEBFFFF7FEBFE5
:100F4000FFF7FEBFFFF7FEBFFFF7FEBFFFF7FEBFD5
:100F5000FFF7FEBFFFF7FEBFFFF7FEBFFFF7FEBFC5
:100F6000FFF7FEBFFFF7FEBFFFF7FEBFFFF7FEBFB5
:100F7000FFF7FEBFFFF7FEBFFFF7FEBFFFF7FEBFA5
:100F8000FFF7FEBFFFF7FEBFFFF7FEBFFFF7FEBF95
:100F9000FFF7FEBFFFF7FEBFFFF7FEBFFFF7FEBF85
:100FA000FFF7FEBFFFF7FEBFFFF7FEBFFFF7FEBF75
:100FB000FFF7FEBFFFF7FEBFFFF7FEBFFFF7FEBF65
:100FC000FFF7FEBFFFF7FEBFFFF7FEBFFFF7FEBF55
:100FD000FFF7FEBF100000000024F4000000000036
:040FE000010000000C
:0400000508000E6180
:00000001FF
