:0100060032C7
:100BB100CABEDD31A3BA2020202A20202320200014
:100BC100CABEDD323A202020202A20202320200006
:100BD1002020202020202020202020202020202014
:100BE1000020202020202020202020202020202024
:100BF100200000C0000BB10BC10BD10BE20BF300C5
:100C01000015000017FF0BF6FF0C003031323334B2
:0C0C110035363738394142434445462C03
:070052000000000000002285
:0709DB001209E2EE54F0FFE7
:1009E200E4F5FEF58FC294C296D294120052000032
:1009F20000EF30E704D2938002C293D296120052E3
:100A0200C29600EF30E604D2938002C293D29612CD
:100A12000052C29600EF30E504D2938002C293D214
:100A220096120052C29600EF30E404D2938002C2C2
:100A320093D296120052C29600EF30E304D2938012
:100A420002C293D296120052C29600EF30E204D252
:100A5200938002C293D296120052C29600EF30E106
:100A620004D2938002C293D296120052C29600EF31
:100A720030E004D2938002C293D296120052C29600
:070A820000000000C29422F5
:10005E00AE077FF81209DBAF06EFC454F0FF0209BA
:01006E00E2AF
:100E9400AE077FFA1209DBAF06EFC454F0FF020974
:010EA400E26B
:100D4000E4F5FEF58F7F3012005E7F087E00120012
:100D5000357F3012005E7F047E001200357F0C125A
:100D6000005E7F0A7E001200357F0112005E7F84E4
:100D70007E031200357F3412005E7F087E00120071
:0D0D8000357F3012005E7F067E00020035D8
:100CEB00F912087EAAF0F97BFF9000C9EBF0A3EA9A
:040CFB00F0A3E9F089
:0B0CFF009000CCEBF0A3EAF0A3E9F0BA
:100D0A00E4A3F09000CCE0FBA3E0FAA3E0F9120818
:100D1A0024FFD39400401E9000CFE0FE04F0EE942E
:100D2A00105012120E949000CDE475F00112083D95
:050D3A0012003180CE23
:010D3F002291
:050076009000C5EFF051
:10007B00E49000C8F07F3012002E7F0C12002E90FF
:10008B0000C5E075F003A42406F582E4340CF58377
:10009B00E493FB740193FA740293F990000812082D
:1000AB007EFFAEF0F5828E83740193FD9000C6F057
:1000BB008F828E837402939000C7F0ED20E7297F27
:1000CB008012002E9000C5E075F003A42406F58283
:1000DB00E4340CF583E493FB740193FA740293F903
:1000EB00120853120CEF80389000C5E0FF75F00337
:1000FB00A42409F582E4340CF583E493FB74019397
:10010B00FA740293F99000C8E075F003A4F58285A8
:10011B00F083120984E4FD1202739000C8E004F02E
:10012B009000C6E020E6287F9012002E9000C5E0DC
:10013B0075F003A42406F582E4340CF583E493FBF9
:10014B00740193FA740293900002120CEB803890B6
:10015B0000C5E0FF75F003A42409F582E4340CF527
:10016B0083E493FB740193FA740293F99000C8E053
:10017B0075F003A4F58285F0831209847D011202C8
:10018B00739000C8E004F09000C6E020E5287F885B
:10019B0012002E9000C5E075F003A42406F582E44E
:1001AB00340CF583E493FB740193FA74029390007F
:1001BB0004120CEB80389000C5E0FF75F003A4240B
:1001CB0009F582E4340CF583E493FB740193FA7420
:1001DB000293F99000C8E075F003A4F58285F083D3
:1001EB001209847D021202739000C8E004F09000A3
:1001FB00C6E020E43A7F9812002E9000C5E075F01F
:10020B0003A42406F582E4340CF583E493FB740118
:10021B0093FA740293F990000612087EAAF0F97B08
:10022B00FF9000C9EBF0A3EAF0A3E9F0020CFF90FA
:10023B0000C5E0FF75F003A42409F582E4340CF546
:10024B0083E493FB740193FA740293F99000C8E072
:10025B0075F003A4F58285F0831209847D031202E5
:07026B00739000C8E004F0ED
:010272002269
:100273009000CDEDF0A3EBF0A3EAF0A3E9F090003A
:03028300CCEFF0CD
:1002860075F003A42406F582E4340CF583E493FBAD
:10029600740193FA740293F99000CDE075F002A40C
:1002A600F58285F08312087EAAF0F99000D374FFD8
:1002B600F0A3EAF0A3E9F0E49000D1F0C203A3F0C2
:1002C6009000D3E0FBA3E0FAA3E0F9120824FF6450
:1002D6002360289000D2E0FE04F0EEC39410501B79
:1002E600EFB42A02D2033003069000D1E004F09066
:1002F60000D4E475F00112083D80C59000D1E004F9
:10030600F07F2012002E9000CDE070047F80801FC9
:100316009000CDE0B401047F9080149000CDE0B44D
:1003260002047F8880099000CDE0B403057F98120F
:10033600002E9000CCE075F003A42406F582E43488
:100346000CF583E493FB740193FA740293F990001D
:10035600CDE075F002A4F58285F08312087EAAF03E
:10036600F99000D374FFF0A3EAF0A3E9F0C203E426
:100376009000D2F09000D3E0FBA3E0FAA3E0F912DC
:100386000824FFD39400500302046D9000D2E0FECF
:1003960004F0EE9410400302046DEF642A60061226
:1003A6000824B423089000D1E06002D2032003039E
:1003B60002044B9000D1E014605B146031146018A5
:1003C6001470739000CEE0FBA3E0FAA3E0F91208E4
:1003D60053E5F054F0C480109000CEE0FBA3E0FAA1
:1003E600A3E0F9120853E5F0540F7E00803990001F
:1003F600CEE0FBA3E0FAA3E0F912085354F0FFE4C1
:10040600C4F854F0C868FEEFC4540F48240CF582B3
:10041600740C3E80199000CEE0FBA3E0FAA3E0F94D
:100426001208537E00540F240CF582EE340CF5832B
:10043600E493FF120E941200319000D1E014F07094
:1004460019C20380159000D3E0FBA3E0FAA3E0F9FC
:10045600120824FF120E941200319000D4E475F0B5
:070466000112083D02037AB8
:01046D00226C
:100D8D00C2AF758503E4F5D9120ED7120006120015
:100D9D0006120EC7120EB6120DD612001EE5EF206A
:100DAD00E104D2008008751B55C200E4F5872000D0
:100DBD0008E51BB45503120A89E51B24A67005121C
:090DCD000B2680F5120C8880F061
:03000300020007F1
:0100070032C6
:03001300020008E0
:0100080032C5
:03000B00020009E7
:0100090032C4
:03001B0002000AD6
:01000A0032C3
:03002B0002000EC2
:01000E0032BF
:03005B00020EA5ED
:100EA500C0D010DA0910D80610DB0310D900D0D055
:010EB500320A
:030073000206572B
:10065700C0E0C0F0C083C082C0D075D000C000C069
:0D06670001C002C003C004C005C006C007EA
:100674002001030207FBC201E514D394274003754C
:100684001400050BE50BD394054003750B00E50B33
:1006940024FE602F14604E14700302078B14700341
:1006A4000207E3240560030207E57D287F0D120E8F
:1006B4005C8E0C8F0D7D287F0B120E5C8E0E8F0FBF
:1006C4000207E5E50CF521E521D3950A40038521D0
:1006D4000AE50EF521E521D3950A50030207E585C5
:1006E400210A0207E5E51A14603A146070240260D6
:1006F400030207E5E50DAE0C7802C333CE33CED842
:10070400F9FFE51425E02400F582E43400F583EED6
:10071400F0A3EFF0E50FAE0E7802C333CE33CED89C
:10072400F9FF8024E50D25E0FFE50C33FEE51425F3
:10073400E02400F582E43400F583EEF0A3EFF0E565
:100744000F25E0FFE50E33FEE51425E02450F58285
:10075400E43400F583EEF0A3EFF00207E5E5142599
:10076400E02400F582E43400F583E50CF0A3E50D04
:10077400F0E51425E02450F582E43400F583E50E19
:10078400F0A3E50FF0805A0508E508D3941440510E
:10079400E50A9403400E151AE51AD39480401775A0
:1007A4001A008012E50AC39401500B051AE51A9445
:1007B400024003751A02E51A14600914600C24023D
:1007C400700E800FC2B7C2B6800DD2B7D2B6800702
:1007D400751A00C2B7D2B6750800750A0080020502
:1007E400140509E509C3940F400575090005197539
:1007F40091007592D28008D2017591007592887526
:0508040093FF75910453
:10080900D007D006D005D004D003D002D001D00043
:0B081900D0D0D082D083D0F0D0E032ED
:10046E00E4F529F528F527F5269000C5F09000C58E
:10047E00E0FFD394275038C2AFEF25E02400F58279
:10048E00E43400F583E0F522A3E0F523D2AFFFE4D8
:10049E00FCFDE5292FF529E5283522F528ED352730
:1004AE00F527EC3526F5269000C5E004F080BEE475
:1004BE007B28FAF9F8AF29AE28AD27AC261208F240
:1004CE008E108F11D3E5119403E51094005005E4BE
:1004DE00F510F51185101C85111DE4F529F528F58B
:1004EE0027F5269000C5F09000C5E0FFD394275065
:1004FE0038C2AFEF25E02450F582E43400F583E0F6
:10050E00F522A3E0F523D2AFFFE4FCFDE5292FF59C
:10051E0029E5283522F528ED3527F527EC3526F582
:10052E00269000C5E004F080BEE47B28FAF9F8AF0F
:10053E0029AE28AD27AC261208F28E128F13D3E502
:10054E00139403E51294005005E4F512F513851289
:10055E001E85131FE4F524F5259000C504F09000C8
:10056E00C5E0FF25E024A0F582E43400F583E0FC2D
:10057E00A3E0FDEF25E0249EF582E43400F583EC44
:10058E00F0FCA3EDF08C22F5232525F525E522358B
:10059E0024F5249000C5E004F0E0B408C1AE1CAF11
:1005AE001D9000AEEEF0A3EFF08E22F523E523258D
:1005BE0025F525E5223524F524E525AE247803CE50
:1005CE00C313CE13D8F9FF120C1D8E158F16E4F53A
:1005DE0024F5259000C504F09000C5E0FF25E02429
:1005EE00B0F582E43400F583E0FCA3E0FDEF25E0F6
:1005FE0024AEF582E43400F583ECF0FCA3EDF08C30
:10060E0022F5232525F525E5223524F5249000C570
:10061E00E004F0E0B408C1AE1EAF1F9000BEEEF0D5
:10062E00A3EFF08E22F523E5232525F525E52235CA
:10063E0024F524E525AE247803CEC313CE13D8F9C2
:08064E00FF120C1D8E178F181E
:010656002281
:100A8900120E1B12001EC2AFE4F5FEF58FD2A4C2EE
:100A9900A6C2A5751B559000C2F09000C2E0FFC325
:100AA90094285028EF25E02450F582E43400F5839A
:100AB900E4F0A3F0EF25E02400F582E43400F583A7
:100AC900E4F0A3F09000C2E004F080CEE4F51EF556
:100AD9001FF51CF51DF517F518F515F516C2007566
:100AE9001A02D2B7D2B675A88075E68043910490F0
:100AF90000C2F07FE87E03120035E4F5FEF58F9021
:100B090000C2E004F0E0C3940640E8120D40E4F5A9
:0D0B1900FEF58F7F2412002E7F3002005E5B
:100C8800E49000C2F012001EE4F519120E1B1200C7
:100C98001EE4F5FEF58FF5DDF5DCF5DBF5DAC2CA05
:100CA800C28EC28C751B5575A88075E68043910469
:100CB800E519C3941E4006E4F51912046ED2A72064
:100CC800A7109000C2E004F0D39414400A751B5A90
:100CD8008005E49000C2F0E4FF120076E51B64553D
:020CE80060A901
:010CEA0022E7
:100B2600E4F5199000C4F09000C3F09000C2F0758F
:100B36008503120E1EE4F5FEF58FF5F775F680F5C2
:100B4600B8C2AAC2ACC2AE751B5AE519C3941E4000
:100B56000BE4F51912046EE4FF120076D2B320B34B
:100B66000E30B20B9000C2E004F0D394148005E47A
:100B76009000C2F0D2B220B20E30B30B9000C3E0A8
:100B860004F0D394148005E49000C3F030A71090CD
:100B960000C4E004F0D39414400A751B558005E4A4
:0A0BA6009000C4F0E51B645A60855E
:010BB0002222
:100E5C0075D1038FBB75BA1FAF058FBC75E88000C9
:100E6C0000000000000000D2ECE4FF30ED0C90001C
:100E7C00C0E5BEF0A3E5BDF080050FEFB428EC9003
:070E8C0000C0E0FEA3E0FF3F
:010E9300223C
:100EC700E4F5D975FDC875D94043D92000F5FE2250
:100EB60043FF807F0E7E0012003575EF0675C980F0
:010EC6002209
:07002E0012005E7F027E005C
:10003500E4FDFCC3ED9FEC9E5012E4FB00000000C4
:0C0045000BEBB40AF70DBD00010C80E7C6
:01005100228C
:100DD60075F1FF75A43F75D4FF7580C075F2DF7598
:100DE600A5D875D5F87590FF75F3FF75A673E4F56C
:100DF600D675A08F75F4FF75A7E075B0FF75F586FB
:100E060075AE8675C7FFF5E175E30175E24375E4D6
:050E16007675D10322F6
:030E1B00758503D7
:100E1E0075F1FF75A43F75D4FF75F2DF75A5D87512
:100E2E00D5F875F3FF75A673E4F5D675F4FF75A7BF
:100E3E00E075F586E5AE44835486F5AEE4F5E175CE
:0E0E4E00E30175E24375E476120ED7020EB68C
:0F0ED70075B283E4F586F5B1F5B9F5A9F58E226C
:100C1D00E4FDFCC3EF9410EE94275056C3EF94E817
:100C2D00EE94034011E42DFD74103CFC74182FFF5D
:100C3D0074FC3EFE80E6C3EF9464EE94004011E434
:100C4D002DFD74013CFC749C2FFF74FF3EFE80E66D
:100C5D00C3EF940AEE9400401174102DFDE43CFC9A
:100C6D0074F62FFF74FF3EFE80E6EF2DFDEE3CFC8B
:0A0C7D008004AC06AD07AE04AF051D
:010C8700224A
:0D001E00C282C281C280C285C284C2832218
:03000000020EE607
:0C0EE600787FE4F6D8FD758129020D8D9F
:10082400BB010689828A83E0225002E722BBFE02D2
:09083400E32289828A83E4932205
:10083D00C5F0F8A3E028F0C5F0F8E5821582700246
:06084D001583E038F022E3
:10085300BB010A89828A83E0F5F0A3E02250068770
:10086300F009E71922BBFE07E3F5F009E319228932
:0B087300828A83E493F5F07401932265
:10087E00BB0110E58229F582E5833AF583E0F5F0B8
:10088E00A3E0225009E92582F886F008E622BBFE95
:10089E000AE92582F8E2F5F008E222E5832AF583DB
:0808AE00E993F5F0A3E99322A0
:1008B60075F008758200EF2FFFEE33FECD33CDCCF9
:1008C60033CCC58233C5829BED9AEC99E58298407C
:1008D6000CF582EE9BFEED9AFDEC99FC0FD5F0D659
:1008E600E4CEFBE4CDFAE4CCF9A88222B800C1B983
:1008F6000059BA002DEC8BF084CFCECDFCE5F0CBC1
:10090600F97818EF2FFFEE33FEED33FDEC33FCEBF9
:1009160033FB10D703994004EB99FB0FD8E5E4F9B4
:10092600FA227818EF2FFFEE33FEED33FDEC33FCA1
:10093600C933C910D7059BE99A4007EC9BFCE99A95
:10094600F90FD8E0E4C9FAE4CCFB2275F010EF2FDA
:10095600FFEE33FEED33FDCC33CCC833C810D707DA
:100966009BEC9AE899400AED9BFDEC9AFCE899F815
:0E0976000FD5F0DAE4CDFBE4CCFAE4C8F922A8
:10098400BB010DE58229F582E5833AF5830209BDB1
:100994005007E92582F80209B4BBFE07E92582F86D
:1009A4000209C6E58229F582E5833AF5830209CF77
:0909B400E6FB08E6FA08E6F92268
:0909BD00E0FBA3E0FAA3E0F9223B
:0909C600E2FB08E2FA08E2F92262
:0C09CF00E493FB740193FA740293F92284
:00000001FF
